:100000000C9434000C9480020C9480020C948002B6
:100010000C9480020C9480020C9480020C94800258
:100020000C9480020C9480020C9480020C94800248
:100030000C9480020C9480020C9480020C94800238
:100040000C9480020C9480020C9480020C94800228
:100050000C9480020C9480020C9480020C94800218
:100060000C9480020C94800211241FBECFEFD8E0C4
:10007000DEBFCDBFE8E6F0E040E017C0B591A59146
:1000800035912591059107FD0CC095918591EF0162
:10009000F92FE82F05900D92A217B307D9F7FE01AB
:1000A00004C01D92A217B307E1F7E836F40731F751
:0C00B0000E9454010C945C00F894FFCFF7
:1000BC00534541542D54656D70657261747572654C
:0100CC000033
:1000CE00CF92DF92EF92CF93DF93CDB7DEB7A597A6
:1000DE000FB6F894DEBF0FBECDBF9C010F2EFCEB0A
:1000EE00CF2EF0E0DF2EF0E0EF2EF02D81E1F601C5
:1000FE00DE0155967E2D0E946C02C9010197883C47
:10010E00910518F58EEB90E090938900809388000E
:10011E0082E3898380E38A838FED8B8383E48C83F0
:10012E0080E28D831E82CE0145960E942B0280ECCA
:10013E000E949E01CE0101960E942B0283EF91E058
:10014E000197F1F700C000009CC0C901825D9109C2
:10015E008332914018F582EC91E090938900809360
:10016E00880082E3898385E38A838FED8B8383E422
:10017E008C8380E28D831E82CE0145960E942B02D7
:10018E0080EC0E949E01CE0101960E942B0283EF0D
:10019E0091E00197F1F700C0000073C0C901855FBF
:1001AE009140883C910518F583EA92E0909389007E
:1001BE008093880082E3898389E38A838FED8B8322
:1001CE0083E48C8380E28D831E82CE0145960E944D
:1001DE002B0280EC0E949E01CE0101960E942B0202
:1001EE0083EF91E00197F1F700C000004AC02D5B4C
:1001FE0032402434314010F582EF93E09093890021
:10020E008093880083E389838A838FED8B8383E4D5
:10021E008C8380E28D831E82CE0145960E942B0236
:10022E0080EC0E949E01CE0101960E942B0283EF6C
:10023E0091E00197F1F700C0000023C010928900F1
:10024E00109288008FE4898386E48A838B8380E30F
:10025E008C838FED8D8383E68E8380E28F83188669
:10026E00CE0145960E942B0280EC0E949E01CE018B
:10027E0001960E942B0283EF91E00197F1F700C0E7
:10028E000000A5960FB6F894DEBF0FBECDBFDF916E
:0A029E00CF91EF90DF90CF9008950C
:1002A8000E9441020E9479020E9451020E94F101BB
:1002B8004B992BC08BB180618BB94C9B11C08BB112
:1002C80084608BB98FE493EC0197F1F700C00000CC
:1002D8000E945F0282E00E940F020E946700E8CF3E
:1002E8008BB18B7F8BB98FE493EC0197F1F700C04A
:1002F80000008BB18F7E8BB98FE493EC0197F1F7F7
:1003080000C000000E945F02D3CF8BB18B7F8BB9F6
:100318008FE493EC0197F1F700C000008BB18F7E5A
:100328008BB98FE493EC0197F1F700C000000E94AD
:040338005F02BECFD3
:10033C0095B19F70282F207F922B95B995B19B7FFB
:10034C0095B995B1986095B9000095B1977F95B91D
:10035C0036E03A95F1F700C025B130E1839FC0013A
:10036C001124922F9F70892B85B985B1886085B92E
:10037C00000085B1877F85B983EF91E00197F1F794
:06038C0000C0000008950E
:1003920095B19F70282F207F922B95B995B19460CB
:1003A20095B995B1986095B9000095B1977F95B9C7
:1003B20000C025B130E1839FC0011124922F9F70AC
:1003C200892B85B985B1886085B9000085B1877FA1
:1003D20085B983EF91E00197F1F700C0000008951D
:1003E2008FEF84B987E893E10197F1F700C000002D
:1003F20082E00E949E0188E20E949E018CE00E949F
:100402009E0186E00E949E0181E00E949E0183EF90
:0C04120091E00197F1F700C00000089590
:10041E00ECE7F0E09081987F908387709081892B34
:10042E008083EAE7F0E080818064808380917A00A7
:10043E0084FFFCCFEAE7F0E08081806180838091C9
:08044E007800909179000895F7
:100456000F931F93CF93DF938C01C0E0D0E003C0CE
:100466000E94C9012196F801EC0FFD1F80818111C0
:0C047600F7CFDF91CF911F910F910895F7
:100482008AB184608AB98AB1877F8AB98BB1886060
:100492008BB98AB18F7E8AB98BB180618BB908958D
:1004A200E0E8F0E0808183688083E1E8F0E0808129
:0C04B2008B60808384B1826084B908955F
:1004BE0081E00E949E0187E893E10197F1F700C069
:0A04CE00000080E80E949E010895DE
:1004D800992777FD05C005900D920197E1F70895DA
:0A04E80001900D920197E1F70895CD
:0E04F20080E480937C0087E880937A00089570
:040500000C94000057
:00000001FF
